:020000040800F2
:1000000048050020C5010008890400081B040008F9
:10001000850400086D020008470D0008000000007C
:1000200000000000000000000000000001080008BF
:100030008D020008000000003D050008910900083D
:10004000DF010008DF010008DF010008DF01000810
:10005000DF010008DF010008DF010008DF01000800
:10006000DF010008DF010008DF010008DF010008F0
:10007000DF010008DF010008DF010008DF010008E0
:10008000DF010008DF010008DF010008DF010008D0
:10009000DF010008DF010008DF010008DF010008C0
:1000A000DF010008DF010008DF010008DF010008B0
:1000B000FD090008DF010008DF010008DF0100087A
:1000C000DF010008DF010008DF010008DF01000890
:1000D000DF010008FD0A0008DF010008DF01000859
:1000E000DF010008DF010008DF010008DF01000870
:1000F000DF010008DF010008DF010008DF01000860
:10010000DF010008DF010008DF010008DF0100084F
:10011000DF010008DF010008DF010008DF0100083F
:10012000DF010008DF010008DF010008DF0100082F
:10013000DF010008DF010008DF010008DF0100081F
:10014000DF010008DF010008DF010008DF0100080F
:10015000DF010008DF010008DF010008DF010008FF
:10016000DF010008DF010008DF010008DF010008EF
:10017000DF010008DF010008DF010008DF010008DF
:10018000DF010008DF010008DF010008DF010008CF
:10019000DF010008DF010008DF010008DF010008BF
:1001A000DF010008DF010008DF010008DFF810D0E0
:1001B00000F01AF800480047BD0D0008AFF30080BA
:1001C000480500200648804706480047FEE7FEE74E
:1001D000FEE7FEE7FEE7FEE7FEE7FEE7FEE7FEE7F7
:1001E00095090008AD010008064C074D06E0E068DF
:1001F00040F0010394E8070098471034AC42F6D36E
:10020000FFF7D8FFC40E0008E40E00081FB5012157
:10021000084600F0A5F94FF4A06000F085F91C2015
:100220008DF8000001208DF803008DF801008DF895
:100230000200684600F03CF90020ADF80C00ADF873
:10024000060040F2E73002904720ADF8040001A913
:100250004FF0804000F010FC01221146900700F0A2
:1002600001FC0121880700F0E0FB1FBD00BFFEE795
:1002700030B50346184603E00C780444E0B2491C4C
:10028000141EA2F10105EAB2F6D130BD704700009C
:1002900000B587B00121084600F052F90121102075
:1002A00000F06EF900208DF81A0001208DF81B0077
:1002B00002208DF819008DF818000002059005A99C
:1002C0001E4800F03FF802208DF81800400205900B
:1002D00005A91A4800F036F807220A21174800F04D
:1002E00079F807220921154800F074F84FF4E1303D
:1002F00001900020ADF80800ADF80A00ADF80C0040
:10030000ADF810000C20ADF80E0001A90C4800F06B
:10031000A7FC00F0BAF8012240F22551084800F08D
:100320007AFC012240F22441054800F074FC0121CE
:10033000034800F02DFC07B000BD000000000240A3
:1003400000100140F0B50A4600210023002400BF40
:100350003DE0012505FA01F3156805EA03049C4216
:1003600034D105684F000326BE40B54305601579BA
:100370004E00B5400668354305601579012D02D061
:100380001579022D16D185684F000326BE40B5436E
:10039000856055794E00B54086683543856045686F
:1003A00001268E40B5434560456896798E40B6B2C9
:1003B00035434560C5684F000326BE40B543C56060
:1003C000D5794E00B540C6683543C560491C102933
:1003D000BFD3F0BDF0B5002300244D07ED0E02FAA7
:1003E00005F3CE1000F1200555F826504E07F70E04
:1003F0000F26BE40B543CF1000F1200646F8275027
:10040000CE1000F1200555F8265045EA0304CE1021
:1004100000F1200545F82640F0BD00BFFEE70000D2
:100420001CB50121802000F08BF84FF48060009013
:1004300001208DF8040000208DF8060001208DF8C1
:10044000070000208DF8050069460D48FFF77AFF88
:100450004FF40060009069460948FFF773FF4FF4BE
:100460008050009069460648FFF76CFF4FF48060AB
:1004700003491831088040000880400008801CBDF6
:10048000001C024000BFFEE7704708B54FF4A060B3
:1004900000F04AF825208DF8000001208DF80100B9
:1004A0008DF802008DF80300684600F001F808BDE1
:1004B00070B5002100230F22C4781CB3174C2468A8
:1004C00004F4E064C4F5E064C4F30721C1F104045A
:1004D000E3B20A4144789C40E1B28478144021435D
:1004E0000C07210E0E4C05786155047804F01F05A9
:1004F0000124AC4005786D11AD0005F1E025C5F88B
:10050000004109E0047804F01F050124AC40054DCA
:100510000678761145F8264070BD00000CED00E02D
:1005200000E400E080E100E002490143024A11607A
:10053000704700000000FA050CED00E07047000075
:1005400029B1064A12680243044B1A6004E0034AC8
:1005500012688243014B1A60704700003038024035
:1005600029B1064A12680243044B1A6004E0034AA8
:1005700012688243014B1A60704700004038024005
:1005800029B1064A12680243044B1A6004E0034A88
:1005900012688243014B1A607047000044380240E1
:1005A000F0B5002100220024022500260223324F4C
:1005B0003F6807F00C0121B1042905D0082937D183
:1005C00005E02E4F076036E02D4F076033E02A4FDD
:1005D0003F1F3F68C7F38056274F3F1F3F6807F014
:1005E0003F036EB1264FB7FBF3F7DFF88CC0ACF1D9
:1005F000040CDCF800C0CCF3881C07FB0CF40CE006
:100600001E4FB7FBF3F7DFF870C0ACF1040CDCF859
:1006100000C0CCF3881C07FB0CF4174F3F1F3F684A
:10062000C7F301477F1C7D00B4FBF5F7076002E0CC
:10063000124F076000BF00BF0F4F3F6807F0F00187
:100640000909104F7A5C0768D74047600A4F3F6836
:1006500007F4E051890A0B4F7A5C4768D7408760FE
:10066000054F3F6807F46041490B064F7A5C4768C5
:10067000D740C760F0BD0000083802400024F400F5
:1006800040787D01000000203EB504465748407A7E
:100690008DF809005548007A4FF07F4101EA00606B
:1006A0005249C9794FF47F0202EA014108434F4998
:1006B0008979121202EA012108434C494979084319
:1006C000CDF805004948C078110401EA00604749A7
:1006D0008978120202EA014108434449497812121A
:1006E00002EA0121084341490978084300909DF836
:1006F00005000B383E49097808443D490870002040
:1007000020703C49009888426DD19DF80500401E3C
:10071000C2B236490020FFF7ABFD0146DDF8050007
:10072000401E324A105C81425DD19DF809001038AC
:10073000062857D2DFE800F003212C384C434FF451
:1007400080602D490880400008804000891E088094
:100750002A490A2000F09CFB2849091D0E2000F0C0
:1007600097FB26490831122000F092FB234B04220C
:100770000321012000F046F834E04FF480601E4968
:10078000891E0880400008804000891C088029E0FC
:100790004FF480601849891E08804000891C088039
:1007A0004000891E08801DE04FF480601249891EB8
:1007B00008804000891C08804000088012E04FF447
:1007C00080600D490880400008804000088009E0F2
:1007D0004FF48060084908804000891E088040006E
:1007E000088000BF00BF01203EBD00003000002097
:1007F0002C000020535A48591A1C02403001002096
:10080000704700007FB582B005460E4614460020B2
:100810000190A006040E13480571467204F10B0006
:100820001049C1F80500104808600A220020FFF7AF
:100830001FFD0190224605A99DF80400FFF718FD51
:1008400001900A220749094800F080FA2246074829
:10085000059900F07BFA012201A9044800F076FA1C
:1008600006B070BD3C010020535A485900100140A9
:100870000CB50020019000904148006840F48030A1
:100880003F49086000BF3E48006800F40030009017
:100890000198401C0190009818B90198B0F5A04F3C
:1008A000F1D13748006800F4003010B10120009009
:1008B00001E0002000900098012860D130484030CD
:1008C000006840F080502E49403108602D48006893
:1008D00040F440402B490860294808300068284906
:1008E000083108600846006840F400400860084687
:1008F000006840F4A05008602348091F0860081FE2
:10090000006840F08070091F086000BF1C48006844
:1009100000F000700028F9D01A48006840F48030D8
:100920001849086000BF1748406800F4803000286C
:10093000F9D01448006840F400301249086000BF44
:100940001048406800F400300028F9D040F20570EB
:100950000E4908600A480830006820F00300084982
:10096000083108600846006840F00200086000BFD7
:1009700003480830006800F00C000828F8D10CBDCE
:100980000038024000700040195A4007003C024005
:100990007047000010B51548006840F47000134916
:1009A00008601348006840F0010011490860002009
:1009B0000F49083108600E4800680E4908400C498C
:1009C00008600D48091D0860081F006820F4802099
:1009D000091F0860002006490C310860FFF748FF36
:1009E0004FF0006001498039086010BD88ED00E0DB
:1009F00000380240FFFFF6FE1030002410B5012140
:100A0000880700F01EF8012808D105480068401C3E
:100A1000034908600121880700F004F810BD0000B8
:100A200010000020CA430282704721B1028842F0C0
:100A30000102028004E002884FF6FE731A40028031
:100A4000704730B50246002000230024158A05EACD
:100A50000103958905EA010413B10CB1012000E0FE
:100A6000002030BD1AB183890B43838102E0838962
:100A70008B4383817047000000220288184B984204
:100A80000ED0184B98420BD0B0F1804F08D0164BC7
:100A9000984205D0154B984202D0154B984204D18C
:100AA0004FF68F731A404B881A43124B984207D067
:100AB000114B984204D04FF6FF431A400B891A435A
:100AC00002804B68C3620B880385054B984202D0B5
:100AD000044B984201D18B7A0386012383827047AD
:100AE00000000140000401400004004000080040F4
:100AF000000C0040001000400014004070B50024BD
:100B0000002540F22551134800F05BF888B11148E8
:100B100000F010F9C4B2104801780078401C0E4A69
:100B200010700E48445440F225510A4800F021F854
:100B30000FE040F22441074800F043F8012808D1B3
:100B400004480088C5B203488088C5B20248FFF750
:100B50009BFD70BD001001402900002030000020E6
:100B600001F40072B2F5007F00D100BFCA430280D9
:100B7000704710B50022002340F66A14A14200D14C
:100B800000BF0A1201249440A3B2DC43048010BDCC
:100B900021B1828942F40052828104E082894DF6BB
:100BA000FF731A408281704702460020B1F5007F32
:100BB00000D100BF13880B400BB1012000E00020E2
:100BC000704770B50246002400230025002040F63F
:100BD0006A16B14200D100BFC1F3421501F01F03F4
:100BE000012606FA03F3012D02D19689334006E06F
:100BF000022D02D1168A334001E0968A33400C124E
:100C0000012606FA04F41688344013B10CB1012011
:100C100000E0002070BDF0B503460024002600254A
:100C2000002040F66A17B94200D100BF1846C1F350
:100C3000421401F01F06012707FA06F5012C01D125
:100C40000C3004E0022C01D1103000E014301AB155
:100C500007682F43076002E00768AF430760F0BDF5
:100C60002DE9FF4705460E460024A14600BFA046D9
:100C7000B08900B100BF2C8A24F44054F0880443AA
:100C80002C82AC8941F20C608443B08831890843DE
:100C9000718908430443AC81AC8A24F44074B08960
:100CA0000443AC826846FFF77BFC2048854202D0B3
:100CB0001F48854202D1DDF80C9001E0DDF8089074
:100CC000A88900F4004040B109EBC90000EB09100D
:100CD00031684900B0FBF1F707E009EBC90000EB10
:100CE000091031688900B0FBF1F76420B7FBF0F020
:100CF00004012009642101FB1078A88900F4004058
:100D000040B1322000EBC800B0FBF1F000F007006A
:100D1000044308E0322000EB08106421B0FBF1F03E
:100D200000F00F0004432C81BDE8FF870010014054
:100D30000014014001468888C0F308007047C1F3E1
:100D400008028280704700BFFEE7000070B50646CB
:100D50000C46154640213046FFF702FF00200D49A2
:100D6000087011E00B480078215C3046FFF7E7FF80
:100D700000BF40210848FFF717FF0128F9D10548B7
:100D80000078401C0349087002480078A842E9DB5B
:100D900070BD00002D0000200010014002E008C8D6
:100DA000121F08C1002AFAD170477047002001E0E5
:100DB00001C1121F002AFBD170470000FFF768FA3B
:100DC000FFF724FAFFF72CFB2B4B012211461046AC
:100DD000FFF718FD294B012202211046FFF712FDF3
:100DE000274B042203210120FFF70CFD254B012294
:100DF00006211046FFF706FD00231A4604210120B4
:100E0000FFF700FD36E01F480068642832D11E4815
:100E1000007890B919480068401C18490860822879
:100E20001FDB012018490870800218490880400023
:100E300008804000891E088013E010480068401EAA
:100E40000E4908605A280CDC00200F4908704FF446
:100E500080600E49891E08804000891C088040007F
:100E60000880064B012202211046FFF7CBFC002030
:100E700004490860C7E700001800002014000020A3
:100E80001C00002010000020280000201A1C024036
:100E900038B5024600200023134600BF08E01C4678
:100EA0005D1CEBB2064D2C5D0DF80040441CE0B219
:100EB0000428F4DB9DED000A81ED000A38BD000036
:100EC00030000020E40E0008000000203000000088
:100ED0009C0D0008140F00083000002018050000C9
:100EE000AC0D00080000000001020304010203042D
:100EF00006070809000000006F0000006400000001
:100F0000000020410000304100004041000000008E
:040F10000B000000D2
:04000005080001AD41
:00000001FF
