:020000040800F2
:10000000A8070020CD0B0008A5020008A7020008E1
:10001000AB020008AF020008B302000800000000B5
:10002000000000000000000000000000B70200080F
:10003000B902000800000000BB020008BD02000871
:10004000E70B0008E70B0008E70B0008E70B0008C8
:10005000E70B0008E70B0008E70B0008E70B0008B8
:10006000E70B0008E70B0008E70B0008E70B0008A8
:10007000E70B0008E70B0008E70B0008E70B000898
:10008000E70B0008E70B0008E70B0008E70B000888
:10009000E70B0008E70B0008E70B0008E70B000878
:1000A000E70B0008E70B0008E70B0008E70B000868
:1000B000E70B0008E70B0008E70B0008E70B000858
:1000C000E70B0008E70B0008E70B0008E70B000848
:1000D000E70B00087D090008E70B0008E70B0008A4
:1000E000E70B0008E70B0008E70B0008E70B000828
:1000F000E70B0008E70B0008E70B0008E70B000818
:10010000E70B0008E70B0008E70B0008E70B000807
:10011000E70B0008E70B0008E70B0008AD0B000831
:10012000E70B0008E70B0008E70B0008E70B0008E7
:10013000E70B0008E70B0008E70B0008E70B0008D7
:10014000E70B0008E70B0008E70B0008E70B0008C7
:10015000E70B0008E70B0008E70B0008E70B0008B7
:10016000E70B0008E70B0008E70B0008E70B0008A7
:10017000E70B0008E70B0008E70B0008E70B000897
:10018000E70B0008E70B000800F002F800F052F857
:100190000AA090E8000C82448344AAF10107DA45E2
:1001A00001D100F047F8AFF2090EBAE80F0013F0E2
:1001B000010F18BFFB1A43F001031847183C000059
:1001C000383C0000103A24BF78C878C1FAD85207EA
:1001D00024BF30C830C144BF04680C6070470000C1
:1001E0000023002400250026103A28BF78C1FBD840
:1001F000520728BF30C148BF0B607047662903F023
:100200009D85642902F07482002070471FB503F0B9
:1002100090FD02F001FF04000020002103F0FCFC2F
:10022000401C60600020002103F0E0FCE0601FBD86
:1002300010B510BD03F076F81146FFF7E7FF00F0A8
:1002400009F803F0A2F803B4FFF7F2FF03BC00F0D3
:100250002FFB000000BF4FF4A06000F0D7FCA820E7
:1002600000F0A4FA4FF4E13000F030FB00F04AFA5D
:10027000532140F2E73000F0D7F900F029F942F2BB
:10028000CF0140F2E73000F065FC07E00448007859
:1002900020B100200249087000F026FCF6E70000BB
:1002A0001E000020704700BFFEE700BFFEE700BF52
:1002B000FEE700BFFEE770477047704770470000D9
:1002C0000CB50020019000907648006840F4803022
:1002D0007449086000BF7348006800F40030009063
:1002E0000198401C0190009818B90198B0F5A04FF2
:1002F000F1D16C48006800F4003010B1012000908A
:1003000001E0002000900098012846D16548403067
:10031000006840F0805063494031086062480068DE
:1003200040F44040604908605E48083000685D491C
:10033000083108600846006840F40040086008463C
:10034000006840F4A05008605848091F0860081F62
:10035000006840F08070091F086000BF51480068C5
:1003600000F000700028F9D040F205705049086094
:100370004C480830006820F003004A490831086002
:100380000846006840F00200086000BF4548083099
:10039000006800F00C000828F8D10CBD10B54548E5
:1003A000006840F47000434908603E48006840F02F
:1003B00001003C49086000203A490831086039488A
:1003C00000683D490840374908603C48091D0860FD
:1003D000081F006820F48020091F086000203149B0
:1003E0000C310860FFF76CFF4FF000603149803935
:1003F000086010BD70B500200022022300240221F5
:10040000284D08352D6805F00C0020B1042806D0D1
:10041000082834D107E02A4D2A4E356033E02A4DB2
:10042000284E35602FE01F4D2D1D2D68C5F38054DB
:100430001C4D2D1D2D6805F03F0154B1224DB5FB1B
:10044000F1F5184E361D3668C6F3881605FB06F220
:1004500009E01B4DB5FBF1F5124E361D3668C6F3AB
:10046000881605FB06F20F4D2D1D2D68C5F30145BD
:100470006D1C6B00B2FBF3F5124E356003E0104DBE
:10048000104E356000BF00BF064D08352D68C5F31E
:1004900003150E4E705D0B4D2D68C540094E35603D
:1004A00070BD000000380240007000400854400752
:1004B000003C024088ED00E0FFFFF6FE1030002413
:1004C0000024F4000000002000127A000400002044
:1004D00000B589B00121022001F0A8FF07A800F0B3
:1004E000D3FCC020079002208DF8200003208DF857
:1004F000210000208DF822008DF8230007A93E4836
:1005000000F07AFC022206213B4800F000FD0222A6
:100510000721394800F0FBFC0121042001F0CFFF46
:10052000364800F057FF04A801F035F80020ADF878
:1005300010004FF6FF7005900020ADF81800ADF8E0
:10054000120004A92D4800F0F2FF00231A460321EF
:100550002A4801F060FD01A801F0F7FB0020ADF88A
:100560000C0001A9254801F0B9FB0021234801F046
:1005700027F80121214801F08FFC012211461F4874
:1005800001F076FC01211D4801F05AF809B000BDC8
:1005900010B5002419482430006804B2002117481F
:1005A00001F00EF8204610BD70B52DED028B002431
:1005B0009FED130A10EE105AFFF7EAFF044600EE13
:1005C000104AF8EEC00A9FED0F1A80EE810AF2EE93
:1005D000040A20EE200A10EE105A284603F038FBD9
:1005E00041EC180B53EC182B214607A002F074F8CD
:1005F000BDEC028B70BD000000040240000800400A
:10060000000000000000BB44656E636F6465723AD1
:10061000202564092073706565643A252E326620B2
:100620007270730D0A00000030B58BB005460C46A1
:100630000121022001F043FF0121084601F0F6FEEE
:1006400002220621284800F062FC40200990022086
:100650008DF8280003208DF8290000208DF82A004D
:1006600001208DF82B0009A91F4800F0C5FB079554
:10067000A0B2ADF818000020ADF82000ADF81A00C7
:1006800006A91A4800F053FF6020ADF804000120CD
:10069000ADF806000020ADF8100001A9134800F0E5
:1006A000DBFF0821114801F064F901210F4800F037
:1006B000A9FF00210D4801F028F901210B4800F0A5
:1006C000BFFF0BB030BD10B50446002C02DBB4F503
:1006D0007A7F03DD06A001F0FFFF10BD214603482D
:1006E00001F013F900BFF8E70000024000040040E9
:1006F00070776D2070617261206572722121210D09
:100700000A0000001CB50121084601F08FFE3020D0
:10071000009001208DF8040000208DF806000320D1
:100720008DF8050000208DF8070069461E4800F08E
:1007300063FB30211C4800F0DDFB1CBD10B510210F
:10074000194800F0D5FB2021174800F0D3FB10BD5D
:1007500010B51021144800F0CDFB2021124800F004
:10076000C7FB10BD10B510210F4800F0C3FB2021BE
:100770000D4800F0BFFB10BD10B50446002C05DD90
:100780002046FFF7A0FFFFF7D9FF0CE0002C05DAA9
:100790006042FFF798FFFFF7DBFF04E00020FFF760
:1007A00092FFFFF7DFFF10BD0000024010B50446C6
:1007B0006FF0040000F07CFAE11704EB5171C1F313
:1007C000C701394A11701046007800EB4001C1EBB7
:1007D000C0104FF6FF7101EAC0003449088010BD17
:1007E0000146314A12784A434FF0E0235A61002211
:1007F0009A611A46126942F001021A6100BF4FF075
:10080000E022106900F001021AB100F48032002ADF
:10081000F5D04FF0E022126922F001024FF0E02300
:100820001A6100229A6170470146204A12884A43A1
:100830004FF0E0235A6100229A611A46126942F091
:1008400001021A6100BF4FF0E022106900F00102BE
:100850001AB100F48032002AF5D04FF0E02212697C
:1008600022F001024FF0E0231A6100229A617047E2
:1008700070B504464FF4077094FBF0F0C6B24FF425
:10088000077094FBF0F100FB114085B205E04FF4D6
:100890000770FFF7C9FF701EC6B2002EF7D115B161
:1008A0002846FFF7C1FF70BD14000020160000208D
:1008B000014600BF704700BF444A128802F0400260
:1008C000002AF9D0C2B2414B9A80704710B588B067
:1008D00004460121084601F0A9FD0121102001F084
:1008E000FFFD072209213A4800F011FB07220A21E7
:1008F000374800F00CFB4FF4C060069002208DF8E2
:100900001C008DF81D0000208DF81E0001208DF8C0
:100910001F0006A92E4800F06FFA02940020ADF8DF
:100920000C00ADF80E00ADF81000ADF814000C206E
:10093000ADF8120002A9254800F089FB01212348E7
:1009400000F00DFC012240F22551204800F0BDFCD2
:10095000012240F224411D4800F0B7FC25208DF80B
:10096000040003208DF805008DF8060001208DF8A5
:10097000070001A800F04FF908B010BD10B540F213
:100980002551124800F0DCFC80B1104800F016FC44
:10099000C4B2104801780078401C0E4A10700E480E
:1009A000445440F22551094800F005FD40F224412D
:1009B000064800F0C5FC40B1012008490870034812
:1009C0000088C4B201488088C4B210BD0010014044
:1009D0000000024020000020880000201E000020AF
:1009E00010B5044642A001F077FE002010BD70B59E
:1009F0000546286801F03FFF0446B4F57A7F01DD23
:100A00004FF47A7414F57A7F00DA3E4C21463EA00A
:100A100001F062FE2046FFF7AFFE002070BD10B56A
:100A20003D4801683D4801F092FF3D4800783A4951
:100A3000096888420ADA3A4802783A49374801F0A8
:100A400041FF374800783849086009E032483549A5
:100A50000268324801F036FF2F48006832490860CA
:100A600000202F49087010BDF0B585B004AA2FA151
:100A70002A4801F013FF074600240BE004EBC400F2
:100A80002B4A02EB8001384601F00AFF054605B10A
:100A900002E0641C022CF1DB00BF022C03D125A074
:100AA00001F01AFE1EE000200090019002900390D9
:100AB000002605E0761C00200490042E00D107E0FB
:100AC0001AA1049801F0E4FE4DF826000028F1D1A7
:100AD00000BF04EBC400164A02EB8000016A6846BE
:100AE000884700BF05B0F0BD10B5FFF798FF10BDF7
:100AF00068656C6C6F7E7E7E7E7E7E7E7E7E7E0DE9
:100B00000A00000018FCFFFF7365742070776D3ACF
:100B10002025640D0A0000002800002008010020A4
:100B20002000002088000020240000202000000079
:100B30002C00002063616E27742066696E64206358
:100B40006D6420696E2066756E6E616D655B5D0D0E
:100B50000A0000007FB505460C460121202001F067
:100B6000AEFC0295ADF804400020ADF80600ADF8EB
:100B70000C0001A9144800F0DAFC012211461248C9
:100B800001F076F90121104800F05AFD37208DF868
:100B9000000001208DF8010003208DF802000120E3
:100BA0008DF80300684600F036F87FBD10B50121CE
:100BB000054801F074F9012801D1FFF7F5FC012186
:100BC000014801F07DF910BD00140040094880473C
:100BD00009480047FEE7FEE7FEE7FEE7FEE7FEE71F
:100BE000FEE7FEE7FEE7FEE704480549054A064B37
:100BF000704700009D03000889010008A80100203B
:100C0000A8070020A8030020A803002032490143C0
:100C1000324A1160704770B5002100230F22C4785A
:100C20001CB32E4C246804F4E064C4F5E064C4F3FF
:100C30000721C1F10404E3B20A4144789C40E1B2C7
:100C40008478144021430C07210E254C057861550A
:100C5000047804F01F050124AC4005786D11AD0047
:100C600005F1E025C5F8004109E0047804F01F050E
:100C70000124AC401B4D0678761145F8264070BD26
:100C8000194A0A400243154B1B1F1A60704739B1BD
:100C9000124A121D12680243104B1B1D1A6006E017
:100CA0000E4A121D126882430C4B1B1D1A607047BE
:100CB000042808D14FF0E021096941F004014FF008
:100CC000E022116107E04FF0E021096921F0040101
:100CD0004FF0E022116170470000FA050CED00E0D2
:100CE00000E400E080E100E080FFFF1F10B5044653
:100CF0009848844208D10121084601F002FC0021F5
:100D0000012001F0FEFB76E09348844208D10121E6
:100D1000022001F0F6FB0021022001F0F2FB6AE064
:100D20008E48844208D10121042001F0EAFB002111
:100D3000042001F0E6FB5EE08948844208D10121ED
:100D4000082001F0DEFB0021082001F0DAFB52E070
:100D50008448844208D10121102001F0D2FB0021F7
:100D6000102001F0CEFB46E07F48844208D10121EB
:100D7000202001F0C6FB0021202001F0C2FB3AE058
:100D80007A48844208D10121402001F0BAFB0021B9
:100D9000402001F0B6FB2EE07548844208D10121C5
:100DA000802001F0AEFB0021802001F0AAFB22E0B0
:100DB0007048844208D10121801501F0A2FB002176
:100DC000A01501F09EFB16E06B48844208D101217A
:100DD000401501F096FB0021601501F092FB0AE03E
:100DE0006648844207D10121001501F08AFB0021E9
:100DF000201501F086FB10BDF0B50A460021002346
:100E0000002400BF3DE0012505FA01F3156805EA5D
:100E100003049C4234D105684F000326BE40B5430D
:100E2000056015794E00B5400668354305601579B3
:100E3000012D02D01579022D16D185684F000326A9
:100E4000BE40B543856055794E00B5408668354350
:100E50008560456801268E40B543456045689679B2
:100E60008E40B6B235434560C5684F000326BE408C
:100E7000B543C560D5794E00B540C6683543C560F9
:100E8000491C1029BFD3F0BD4FF6FF71016000214E
:100E9000017141718171C171704708B54FF48032A1
:100EA0000092009A0A430092009AC261C161009ABE
:100EB000C261C2690092C269009208BD0246002068
:100EC00013690B400BB1012000E000207047014680
:100ED000086980B270470246002053690B400BB18D
:100EE000012000E0002070470146486980B2704749
:100EF00001837047418370470AB1018300E0418359
:100F000070474161704742694A4042617047F0B59D
:100F1000002300244D07ED0E02FA05F3CE1000F178
:100F2000200555F826504E07F70E0F26BE40B54354
:100F3000CF1000F1200646F82750CE1000F1200512
:100F400055F8265045EA0304CE1000F1200545F877
:100F50002640F0BD000002400004024000080240AC
:100F6000000C024000100240001402400018024031
:100F7000001C0240002002400024024000280240E1
:100F800010B50446FA48844208D10121102001F02E
:100F9000FCFA0021102001F0F8FA57E0F5488442ED
:100FA00009D10121480401F0DFFA00214FF400309B
:100FB00001F0DAFA4AE0F048844209D101218804BC
:100FC00001F0D2FA00214FF4802001F0CDFA3DE08B
:100FD000EA48844209D10121C80401F0C5FA002180
:100FE0004FF4002001F0C0FA30E0E548844209D116
:100FF0000121080501F0B8FA00214FF4801001F03A
:10100000B3FA23E0DF48844208D10121202001F017
:10101000BCFA0021202001F0B8FA17E0DA48844237
:1010200009D10121880701F09FFA00214FF080408B
:1010300001F09AFA0AE0D548844207D1012140051F
:1010400001F092FA0021600501F08EFA10BD2DE941
:10105000FF4705460E460024A14600BFA046B089C2
:1010600000B100BF2C8A24F44054F08804432C8241
:10107000AC8941F20C608443B0883189084371899E
:1010800008430443AC81AC8A24F44074B08904431F
:10109000AC82684601F0F9F8B548854202D0B948FB
:1010A000854202D1DDF80C9001E0DDF80890A889B6
:1010B00000F4004040B109EBC90000EB09103168B1
:1010C0004900B0FBF1F707E009EBC90000EB09109C
:1010D00031688900B0FBF1F76420B7FBF0F0040140
:1010E0002009642101FB1078A88900F4004040B178
:1010F000322000EBC800B0FBF1F000F00700044321
:1011000008E0322000EB08106421B0FBF1F000F0A1
:101110000F0004432C81BDE8FF874FF41651016096
:1011200000218180C18001810C21418100218181C8
:10113000704710B502460020108A20F470600B88BA
:101140004C8823438C882343CC8823431843108244
:1011500010BD0021018041808180C180704721B194
:10116000828942F40052828104E082894DF6FF7345
:101170001A4082817047028B02F47F420283028B05
:101180000A430283704721B1828942F4004282817E
:1011900003E08289C2F30E028281704721B1828A04
:1011A00042F40062828204E0828A4FF2FF731A40A6
:1011B00082827047C1F308028280704701468888A6
:1011C000C0F308007047028A4FF6F0731A4002829B
:1011D000028A0A430282704721B1828942F00202E8
:1011E000828104E082894FF6FD731A408281704744
:1011F00082894FF2FF731A40828182890A43828179
:101200007047028A4FF6DF731A400282028A0A434D
:101210000282704721B1028A42F48042028204E0D5
:10122000028A4BF6FF731A4002827047818941F0AF
:1012300001018181704721B1828A42F008028282D5
:1012400004E0828A4FF6F7731A4082827047028B5D
:10125000D2B20283028B42EA01220283704721B19B
:10126000828A42F02002828204E0828A4FF6DF7393
:101270001A408282704721B1828A42F01002828233
:1012800004E0828A4FF6EF731A4082827047828AA6
:101290004FF6FB731A408282828A0A438282704729
:1012A00021B1828A42F00202828204E0828A4FF6F1
:1012B000FD731A40828270471AB1838A0B4383827E
:1012C00002E0838A8B4383827047F0B50346002493
:1012D00000260025002040F66A17B94200D100BF61
:1012E0001846C1F3421401F01F06012707FA06F55C
:1012F000012C01D10C3004E0022C01D1103000E0AF
:1013000014301AB107682F43076002E00768AF4343
:101310000760F0BD02460020B1F5007F00D100BF9C
:1013200013880B400BB1012000E00020704701F44E
:101330000072B2F5007F00D100BFCA43028070473F
:1013400070B50246002400230025002040F66A16EE
:10135000B14200D100BFC1F3421501F01F030126C5
:1013600006FA03F3012D13D19689334017E00000EC
:10137000001001400044004000480040004C004084
:10138000005000400014014000780040007C004004
:10139000022D02D1168A334001E0968A33400C12A6
:1013A000012606FA04F41688344013B10CB101206A
:1013B00000E0002070BD10B50022002340F66A1442
:1013C000A14200D100BF0A1201249440A3B2DC4321
:1013D000048010BD10B50446FE48844208D10121A6
:1013E000084601F0D2F80021012001F0CEF89DE07E
:1013F000B4F1804F08D10121084601F0B5F8002171
:10140000012001F0B1F891E0F348844208D10121B4
:10141000022001F0A9F80021022001F0A5F885E0E2
:10142000EE48844208D10121042001F09DF80021FA
:10143000042001F099F879E0E948844208D10121BB
:10144000082001F091F80021082001F08DF86DE0EE
:10145000E448844208D10121102001F085F80021E0
:10146000102001F081F861E0DF48844208D10121B9
:10147000202001F079F80021202001F075F855E0D6
:10148000DA48844208D10121022001F07EF80021CF
:10149000022001F07AF849E0D548844209D10121BF
:1014A000080401F072F800214FF4803001F06DF86B
:1014B0003CE0D048844209D10121480401F065F89C
:1014C00000214FF4003001F060F82FE0CA48844258
:1014D00009D10121880401F058F800214FF480203F
:1014E00001F053F822E0C548844208D10121402090
:1014F00001F03AF80021402001F036F816E0C0482B
:10150000844208D10121802001F02EF800218020A2
:1015100001F02AF80AE0BB48844207D10121801576
:1015200001F022F80021A01501F01EF810BD0022E4
:101530000288A84B98420ED0AC4B98420BD0B0F129
:10154000804F08D0A44B984205D0A44B984202D0BB
:10155000A34B984204D14FF68F731A404B881A431D
:10156000A04B984207D0A04B984204D04FF6FF43BF
:101570001A400B891A4302804B68C3620B880385AB
:10158000944B984202D0994B984201D18B7A0386B2
:101590000123838270474FF0FF31416000210180B9
:1015A00001814180817270470185828270470A46BD
:1015B000002101884FF68F73194011430180704755
:1015C00041627047C16270470146486A70470146F0
:1015D000088D704721B1028842F00202028004E0C7
:1015E00002884FF6FD731A400280704721B10288CD
:1015F00042F00402028004E002884FF6FB731A40B6
:101600000280704721B1028842F08002028004E02B
:1016100002884FF67F731A400280704702884FF6A7
:10162000F7731A40028002880A43028070470288DA
:101630004FF6FF431A40028002880A430280704737
:1016400021B1028842F00102028004E002884FF6D4
:10165000FE731A400280704770B5002400220023F8
:10166000058C4FF6FE7635400584028C8388048B0A
:101670004FF68F752C40B51E2C400D882C43751EDF
:101680002A408D892A434D882A43524DA84202D0D0
:10169000564DA84213D14FF6F7752A40CD892A43FB
:1016A0004FF6FB752A408D882A434FF6FF652B4085
:1016B0004FF6FF552B400D8A2B434D8A2B438380D9
:1016C00004838D684563028470BD70B500240022D8
:1016D0000023058C4FF6EF7635400584028C838815
:1016E000048B48F6FF752C404FF6FF452C400D88C3
:1016F0004FF6FF7606EA05252C434FF6DF752A40A4
:101700008D8906EA05152A434D8806EA05152A4300
:10171000304DA84202D0354DA8421DD14FF67F75FD
:101720002A40CD894FF6FF7606EA05152A434FF683
:10173000BF752A408D8806EA05152A434FF6FF3506
:101740002B404FF2FF752B400D8A06EA85052B438F
:101750004D8A06EA85052B43838004838D68856363
:10176000028470BD70B5002400220023058C4FF662
:10177000FF6635400584028C8388848B4FF68F7515
:101780002C404FF6FC752C400D882C434FF6FF552E
:101790002A408D894FF6FF7606EA05252A434D88B3
:1017A00006EA05252A430B4DA84202D00F4DA84258
:1017B00038D14FF2FF752A40CD894FF6FF7606EA01
:1017C00005252A434FF6FF352A408D8806EA052570
:1017D0002A4319E0000001400004004000080040D6
:1017E000000C0040001000400014004000040140C4
:1017F0000040014000440140004801400018004002
:10180000001C0040002000404EF6FF752B404DF6B6
:10181000FF752B400D8A06EA05152B434D8A06EA13
:1018200005152B43838084838D68C563028470BD56
:1018300070B5002200230024058C4EF6FF7635405B
:101840000584038C8488828B48F6FF752A404FF606
:10185000FF452A400D884FF6FF7606EA05252A4304
:101860004DF6FF752B408D8906EA05352B434D88D3
:1018700006EA05352B43FE4DA84202D0FD4DA84295
:1018800008D14BF6FF752C400D8A4FF6FF7606EA1D
:1018900085152C43848082838D680564038470BD24
:1018A000002101804180818081608181C18101822C
:1018B0004182704770B50346002000241846183056
:1018C00001258D40ACB21D8CA5431D8409B10829AA
:1018D0000AD100EB610005684FF68F763540056050
:1018E0000568154305600FE00D1FC5F34E0528443C
:1018F000056848F6FF763540056005684FF6FF76C7
:1019000006EA02263543056070BD41637047816376
:101910007047C1637047016470470A460021018B1C
:101920004FF68F7319401143018370470A46002117
:10193000018B48F6FF7319404FF6FF7303EA022349
:101940001943018370470A460021818B4FF68F733C
:1019500019401143818370470A460021818B48F664
:10196000FF7319404FF6FF7303EA02231943818383
:1019700070470A460021018B4FF6F7731940114357
:10198000018370470A460021018B4FF2FF73194013
:101990004FF6FF7303EA02231943018370470A4697
:1019A0000021818B4FF6F7731940114381837047F3
:1019B0000A460021818B4FF2FF7319404FF6FF73E7
:1019C00003EA02231943818370470A460021018BF1
:1019D0004FF6FB7319401143018370470A460021FB
:1019E000018B4FF6FF3319404FF6FF7303EA0223D2
:1019F0001943018370470A460021818B4FF6FB7320
:101A000019401143818370470A460021818B4FF6AC
:101A1000FF3319404FF6FF7303EA02231943818312
:101A200070470A460021018B4FF67F73194011431E
:101A3000018370470A460021018BC1F30E014FF666
:101A4000FF7303EA02231943018370470A4600210A
:101A5000818B4FF67F7319401143818370470A468B
:101A60000021818BC1F30E014FF6FF7303EA0223BD
:101A70001943818370470A460021018C4FF6FD739C
:101A800019401143018470470A460021018C4FF62A
:101A9000F77319401143018470470A460021018CF5
:101AA0004FF6DF7319404FF6FF7303EA0213194331
:101AB000018470470A460021018C4FF67F7319405C
:101AC0004FF6FF7303EA02131943018470470A4675
:101AD0000021018C4FF6FF5319404FF6FF7303EAC4
:101AE00002231943018470470A460021018C4FF2FA
:101AF000FF7319404FF6FF7303EA02231943018471
:101B000070470A460021018C4DF6FF7319404FF6CD
:101B1000FF7303EA023319430184704730B5002391
:101B200001248C40A3B2048C9C430484048C02FAEC
:101B300001F5ADB22C43048430BD30B5002304243C
:101B40008C40A3B2048C9C430484048C02FA01F5FB
:101B5000ADB22C43048430BD828B4FF2FF331A4068
:101B60008283828B4FF6FF7303EA01231A43828339
:101B70007047F0B50C461546002100220026078C60
:101B80004EF6FF7C07EA0C070784818B028C4FF628
:101B9000FF7707EA043640F6FF4739404FF6FF77F4
:101BA00007EA052739434FF6FF7707EA033739433A
:101BB00045F6FF773A4046F480573A4381830284E2
:101BC000F0BD828B4FF6F3731A408283828B0A43F7
:101BD00082837047F0B50C4615460021002200268E
:101BE000078C4FF6FF6C07EA0C070784818B028C89
:101BF0004FF6FF7707EA04264FF60C7739404FF689
:101C0000FF7707EA03172F4339434FF2FF573A4054
:101C100046F480773A4381830284F0BD028B4FF211
:101C2000FF331A400283028B4FF6FF7303EA01234E
:101C30001A4302837047F0B50C4615460021002276
:101C40000026078C4FF6EF7C07EA0C070784018B10
:101C5000028C4FF6FF7707EA041640F6FF4739403B
:101C60004FF6FF7707EA033739434FF6FF7703E074
:101C7000000001400004014007EA052739434FF600
:101C80005F773A4046F010073A4301830284F0BD83
:101C9000028B4FF6F3731A400283028B0A430283CE
:101CA0007047F0B50C46154600210022068C4FF611
:101CB000FE773E400684018B028C4FF60C76314055
:101CC0007E1C06EA03162E4331434FF6F57632406A
:101CD00044F00106324301830284F0BD70B505462D
:101CE0000C46208850B92389A28861882846FFF7CE
:101CF000D8FFE1882846FFF7CBFF25E0208804289D
:101D00000AD12389A28861882846FFF794FFE188D9
:101D10002846FFF783FF17E0208808280AD1238987
:101D2000A28861882846FFF755FFE1882846FFF71B
:101D300048FF09E02389A28861882846FFF719FF38
:101D4000E1882846FFF708FF70BD0021018041802F
:101D5000012181800021C180018170472DE9F0417E
:101D600005460C4600260127608808B9022600E0D7
:101D70000026A088012801D1022700E00127208841
:101D8000A0B92389A28861882846FFF78AFFE188E5
:101D90002846FFF77DFF23893A4631462846FFF75C
:101DA0004AFFE1882846FFF739FF13E02389A2881C
:101DB00061882846FFF73FFFE1882846FFF72EFF9E
:101DC00023893A4631462846FFF76BFFE1882846CB
:101DD000FFF75EFFBDE8F0810146486B70470146A2
:101DE000886B70470146C86B70470146086C7047A6
:101DF0000A884B881A438B881A43CB881A430B896D
:101E00001A434B891A438B891A43A0F84420704720
:101E10000021018041808180C180018141818181D7
:101E2000704731B1B0F8442042F40042A0F8442099
:101E300005E0B0F84420C2F30E02A0F84420704739
:101E400021B1828842F00402828004E082884FF649
:101E5000FB731A408280704721B1828842F00102F0
:101E6000828004E082884FF6FE731A4082807047B9
:101E70001AB183890B43838102E083898B43838179
:101E800070478182704702460020138A0B400BB1D5
:101E9000012000E000207047CA430282704730B53D
:101EA0000246002000230024158A05EA01039589D3
:101EB00005EA010413B10CB1012000E0002030BD9F
:101EC000CA430282704741EA0203A0F848307047D3
:101ED0001AB183890B43838102E083898B43838119
:101EE000704721B1828842F00802828004E0828833
:101EF0004FF6F7731A408280704701894FF6F872E7
:101F00001140018170470A46002101894FF68F7305
:101F1000194011430181704730B504460D462946EA
:101F20002046FFF7F0FF208940F00700208130BDF8
:101F30002DE9F04104460D4616461F46602D06D198
:101F40003B46012231462046FFF775FE05E03B4641
:101F5000012231462046FFF7A4FE29462046FFF71E
:101F6000D2FF208940F007002081BDE8F08130B524
:101F70000C4600210189C9B24FF6FF7505EA032519
:101F8000154325432943018130BD2DE9F041054624
:101F90000E4617469846002443463A4631462846A0
:101FA000FFF7E5FF2C894FF6F870044044F0070472
:101FB0004FF68F70044044F070042C81BDE8F0812E
:101FC000F0B504460D4616461F463B4632462946A6
:101FD0002046FFF7CCFF208940F480402081F0BDEF
:101FE00082884FF68F731A40828082880A438280EB
:101FF000704702894FF6F8731A40028102890A433A
:102000000281704702894FF67F731A40028102896C
:102010000A4302817047F0B50C4615461E46002162
:10202000002200230189028B038C4FF6F877394098
:1020300021434FF6FC473A4040F201173A434FF62E
:10204000DD773B404FF6FF7707EA06172F433B4308
:10205000018102830384F0BD21B1828842F08002B5
:10206000828004E082884FF67F731A408280704736
:10207000A0F8501070470000F948006840F00100D7
:10208000F74908600020F64908310860F448006804
:10209000F4490840F2490860F348091D0860F34814
:1020A000EF4984310860F0481038091D0860EC4899
:1020B000006820F48020EA4908600020E8490C31DB
:1020C0000860E7498C31086070470021E44A921C9F
:1020D000117011460870704710B5014600220023A8
:1020E00000204A11012A02D1DD4C236808E0022AAF
:1020F00003D1DB4C7034236802E0D94C743423687C
:1021000001F01F02012494401C400CB1012000E0AA
:10211000002010BD38B5002000900024002500BF2D
:102120003120FFF7D9FF05460098401C0090009829
:10213000B0F5A04F01D0002DF2D03120FFF7CCFF39
:1021400008B1012400E00024204638BD01460020EB
:10215000C34A106820F0F80040EAC10010607047E0
:10216000C349086070470021BD4A70321170117078
:10217000012802D004280AD104E00121B84A7032B3
:10218000117005E00521B64A7032117000E000BF01
:1021900000BF7047B7490860704770B5049C41EABA
:1021A00082150126C6EB530645EA0645054345EA76
:1021B0000465AB4E361D356070BDAD49086670478D
:1021C000820142EA0172A64B84331A607047A84923
:1021D0008866704710B5830143EA016343EA0273DE
:1021E0009F4C8834236010BDA14908677047A049FF
:1021F000C864704702460020994B0833186820F0E5
:10220000EC6042EA01031843954B083318607047AD
:1022100002460020924B0833186820F0784042EACA
:10222000010318438E4B08331860704701460020A5
:102230008B4A0832106820F0030008431060704792
:1022400087480830006800F00C0070470146002005
:10225000834A0832106820F0F0000843106070478D
:10226000014600207E4A0832106820F4E0500843FE
:102270001060704701460020794A0832106820F447
:10228000604040EAC10010607047F0B500210022B4
:102290000024022500260223714F08373F6807F00B
:1022A0000C0121B1042905D0082937D105E0724F6E
:1022B000076036E0714F076033E0694F3F1D3F68AC
:1022C000C7F38056664F3F1D3F6807F03F036EB16E
:1022D0006A4FB7FBF3F7DFF888C10CF1040CDCF8A8
:1022E00000C0CCF3881C07FB0CF40CE0624FB7FB7A
:1022F000F3F7DFF86CC10CF1040CDCF800C0CCF390
:10230000881C07FB0CF4564F3F1D3F68C7F301477D
:102310007F1C7D00B4FBF5F7076002E0564F0760B5
:1023200000BF00BF4E4F08373F6807F0F0010909B2
:10233000534F7A5C0768D7404760494F08373F687A
:1023400007F4E051890A4E4F7A5C4768D7408760AE
:10235000434F08373F6807F46041490B484F7A5CA8
:102360004768D740C760F0BD002100F44072B2F565
:10237000407F0AD13A4A0832116821F4F811414AE3
:1023800002401143364A08321160354A70321268F1
:10239000C0F30B031A43324B70331A607047354950
:1023A00044390860704733494039086070473649FE
:1023B0000860704701460020294A8C32106820F0DE
:1023C0001F004A1E1043264A8C3210607047014697
:1023D0000020234A8C32106820F4F8504A1E40EA4C
:1023E00002201F4A8C3210607047014600201C4AB0
:1023F0008C32106820F4401008431060704701468A
:102400000020174A8C32106820F440000843106006
:10241000704701460020124A8C32106820F4403088
:1024200008431060704719490860704739B10C4A79
:102430003032126802430A4B30331A6006E0084A11
:10244000303212688243064B30331A607047F9B15C
:10245000034A343212680243014B34331A601CE0E1
:1024600000380240FFFFF6EA103000240030002060
:1024700000004742800E47420024F40000127A0018
:1024800074000020FFFCFF0F5C014742E01147424F
:102490008F4A126882438E4B1A60704739B18C4A5A
:1024A000121D126802438A4B1B1D1A6006E0884AFF
:1024B000121D12688243864B1B1D1A60704739B18A
:1024C000834A0C3212680243814B0C331A6006E0D7
:1024D0007F4A0C32126882437D4B0C331A6070477E
:1024E00039B17B4A103212680243794B10331A60BB
:1024F00006E0774A103212688243754B10331A6037
:10250000704739B1724A243A12680243704B243B37
:102510001A6006E06E4A243A126882436C4B243BF0
:102520001A60704739B16A4A203A12680243684B10
:10253000203B1A6006E0664A203A12688243644BE8
:10254000203B1A60704739B1614A1C3A1268024355
:102550005F4B1C3B1A6006E05D4A1C3A12688243DE
:102560005B4B1C3B1A60704739B1594A143A1268E8
:102570000243574B143B1A6006E0554A143A12685E
:102580008243534B143B1A60704739B1504A103A9A
:10259000126802434E4B103B1A6006E04C4A103A58
:1025A000126882434A4B103B1A60704739B1484A5F
:1025B0001C3212680243464B1C331A6006E0444A40
:1025C0001C3212688243424B1C331A60704739B187
:1025D0003F4A2032126802433D4B20331A6006E026
:1025E0003B4A203212688243394B20331A607047CD
:1025F00039B1374A243212680243354B24331A600A
:1026000006E0334A243212688243314B24331A6085
:10261000704739B12E4A2C32126802432C4B2C33AE
:102620001A6006E02A4A2C3212688243284B2C3367
:102630001A60704739B1264A303212680243244B7F
:1026400030331A6006E0224A303212688243204B4F
:1026500030331A607047012808D11D493C310968A0
:1026600041F008011A4A3C32116007E018493C3138
:10267000096821F00801164A3C321160704739B1EF
:10268000134A273A12780243114B273B1A7006E08F
:102690000F4A273A127882430D4B273B1A70704736
:1026A0000B484030006840F08070094940310860B4
:1026B000704701460020064A283A12680A400AB1CB
:1026C000012000E00020704701492639087070475A
:1026D00034380240704700000FB4044910B503AA13
:1026E000029800F0C7FB10BC5DF814FB1800002036
:1026F0002DE9F0410646002410687529314616A5DB
:1027000010D0AFF30080002802DA404213A507E0A2
:1027100031688A0701D512A502E0490704D511A541
:10272000012401E0AFF3008000210A2206F1240712
:1027300009E0B0FBF2FCB0FBF2F302FB1C0030300E
:1027400078541846491C0028F3D123462A463046BF
:10275000BDE8F04100F026B9000000002D000000A7
:102760002B000000200000002DE9F0474FF0000A88
:1027700089460446C0F820A02046E1688847002822
:1027800076D0252806D0D4E901219047206A401C44
:102790002062F1E7E168204600258847C4F81CA0C4
:1027A00006460027C4F818A02A2E09D0304601F0AA
:1027B00015FA38B304EB8708303EC8F8186019E002
:1027C00059F8041B204604EB87029161E1688847B1
:1027D000012F064618D1E069002820DA25F02005EF
:1027E0001DE0D8F8180000EB800006EB4000303800
:1027F000C8F818002046E1688847064601F0EEF95F
:102800000028EED1012F0AD02E2E08D12046E168F3
:1028100088477F1C0646022F45F02005C4DBA069CF
:10282000002803DA404245F00105A061E80701D025
:1028300025F01005B6B1A6F14100192802D82036BE
:1028400045F400654A463146204625604D46FDF771
:10285000D5FC58B1012806D0ED1D25F0070000F188
:10286000080989E704E005F1040985E730468AE7AD
:10287000206ABDE8F08770B5064600F08FF804685E
:10288000054630460A22002100F006FB2C6070BD90
:10289000014A00F039BB00008400002000F034BB86
:1028A00030B505460B462A4613F8014B12F8010BCA
:1028B00008B1A042F8D01CB1002802D06D1CF1E78D
:1028C000284630BD032A40F2308010F0030C00F09F
:1028D000158011F8013BBCF1020F624498BF11F85A
:1028E00001CB00F8013B38BF11F8013BA2F1040213
:1028F00098BF00F801CB38BF00F8013B11F003038B
:1029000000F02483083AC0F0088051F8043B083AEC
:1029100051F804CBA0E80810F5E7121D5CBF51F890
:10292000043B40F8043BAFF30080D20724BF11F80A
:10293000013B11F801CB48BF11F8012B24BF00F86F
:10294000013B00F801CB48BF00F8012B70474FF066
:1029500000020429C0F0128010F0030C00F02A835A
:10296000CCF1040CBCF1020F18BF00F8012BA8BF7A
:1029700020F8022BA1EB0C0100F01CBB5FEAC17C2C
:1029800024BF00F8012B00F8012B48BF00F8012BF1
:1029900070477047704770477047000000487047A5
:1029A000480100202DE9F0470D469946924604461D
:1029B00000F124080168880604D5E06921F01001BF
:1029C000216000E00120A84201DD471B00E0002754
:1029D000A1697A1902EB0900081AA0612078C006E3
:1029E00002D42046AFF30080002608E0D4E901219C
:1029F0001AF806009047206A401C761C20624E455B
:102A0000F4DB2078C0060AD52046AFF3008006E04C
:102A1000D4E9012130209047206A401C2062381EF2
:102A2000A7F10107F4DC07E0D4E9012118F805005B
:102A30009047206A401C2062281EA5F10105F3DCA6
:102A40002046AFF300802078000602D50220BDE8C2
:102A5000F0870120FBE770472DE9FF4F0C461E462B
:102A60004FF0FF378BB0D2E90001DDF860800A90AB
:102A70008A46C1F30A5505B93D46002108464FF084
:102A80000000BAF1000F00F4400005DA00EB80000E
:102A90004FF4400101EA50004FEA9059B9F1010F9B
:102AA00000DDB9460A9850EA4A000ED044F61050AC
:102AB000A5F2FF3545432F14B8F1000F1ED0754223
:102AC000291E1EDDC9F100021CE0B8F1010F4FF014
:102AD000000001D0302103E0F24305E02154401C06
:102AE000B042FBDB30460022002121540B99C1F893
:102AF0000880C1E900200FB0BDE8F08FBD1B6D1C40
:102B0000DEE74A4600DA694206A800F077FB06AB2A
:102B100093E8070003AB83E8070050460A9900F0EA
:102B20007DFC8DE80700A0F500501F380090039849
:102B3000002D0ADD42F21F014A460844002303A982
:102B40000390684600F0E6FE09E0A0F500504A4612
:102B50001F38002303A90390684600F0F0FE8DE8BB
:102B600007000004000C03D04FF0FF30410800E0E4
:102B70001046B8F1000F03D00022009215461EE067
:102B8000751E05D400F04CFA303262556D1EF9D531
:102B9000B3460122084302D000227F1C04E02078C3
:102BA000302801D100227F1E002A099784D01DE021
:102BB000112D07DA00F034FA303262556D1C50EAFC
:102BC0000102F5D1084302D00098C8B10EE00021FF
:102BD000681E05E0235C625C63542254401E491C5D
:102BE0008142F7DBAB46A81B401E0990002004F889
:102BF0000B000B98099AC0F80880C0E9002B7AE70F
:102C000011264FF0000857E72DE9F04F884604469B
:102C1000D21D22F0070191B0D1E90001CDE90A01EE
:102C200000F0C4FF02460B98C00F01D02D2007E032
:102C30002068810701D52B2002E0202101EAC00095
:102C4000032A099001D0072A05DB034641462046A6
:102C500000F044FA0BE12078800601D5E06900E03D
:102C60000620B8F1650F814606D0B8F1660F18D07E
:102C7000B8F1670F70D131E00020B9F1110F009069
:102C800001DB112301E009F101030AAA01A90CA843
:102C9000FFF7E2FEDDE90C70002609F1010583462D
:102CA00047E001204B4600904FF000470AAA01A9D7
:102CB0000CA8FFF7D1FEDDE90DB00C995D460026AA
:102CC00010B909F101000D18B9EB050003D4C0F1EA
:102CD000FF3609F10105A5EB09002BE0B9F1010F61
:102CE00001DA4FF001090020B9F1110F00904846B8
:102CF00001DD112300E003460AAA01A90CA8FFF791
:102D0000ABFEDDE90C704D460026834620780007B7
:102D10000AD4AB4500DA5D4601A8012D04DD411956
:102D200011F8011C302907D04F4502DA17F1040FC2
:102D300004DA012082460FE06D1EEEE7002F02DC70
:102D4000ED1B3E4403E0781CA84200DD7D1CB81B4F
:102D500000F1010A4FF000472078000703D4AA458C
:102D600001DB4FF0FF3A0021B7F1004F0DF14308AE
:102D70008DF8431024D002202B23002F01DA7F424C
:102D80002D230A21021EA0F1010000DC5FB197FB98
:102D9000F1FC97FBF1F201FB1C7C17460CF1300CA7
:102DA00008F801CDEEE7A8F10100037021880905BC
:102DB00001D5452100E06521A0F1010800F8011CC2
:102DC00009980FA9A1EB0807FF1D00B101204119C7
:102DD00001EBEA70A1693844081A401EA06120780E
:102DE000C00602D42046AFF30080099828B1D4E988
:102DF00001219047206A401C20622078C00622D51D
:102E00002046AFF300801EE0002E04DBB34502DD58
:102E100001A8805D00E03020D4E901219047206ABC
:102E2000401C2062761CAAF101005FEA000A0AD168
:102E300000F0F2F8C0680168405CD4E901219047D5
:102E4000206A401C2062281EA5F10105DCDC07E099
:102E5000D4E9012118F8010B9047206A401C206238
:102E6000381EA7F10107F3DC2046AFF300800320F2
:102E700011B041E6074B70B50D467B4400F01BF9DD
:102E80000446284600F02CFA10B14FF0FF3070BD18
:102E9000204670BD39DAFFFF2DE9F04791460F4615
:102EA00080460446002614F8015B2DB100F0ACF812
:102EB0000068405DC007F6D12B2D02D02D2D18D013
:102EC000641E4A463946204600F048F927B1396861
:102ED000A14201D1C7F800804FF0020471050BD563
:102EE0004042002803DDFFF759FD0460A007BDE85C
:102EF000F08746F48066E4E70028F8DAFFF74EFD35
:102F000004606FF00040F2E72DE9F04115460E46EF
:102F1000040002D12C6804B90BA4204600F0F4F997
:102F20000444207870B127463146384600F0DCF979
:102F30000444207810B1002004F8010B38462C60BE
:102F4000BDE8F0810027F9E70000000010B5203A45
:102F5000C0F00B80B1E81850203AA0E81850B1E852
:102F60001850A0E81850BFF4F5AF5FEA027C24BF08
:102F7000B1E81850A0E8185044BF18C918C0BDE8FF
:102F800010405FEA827C24BF51F8043B40F8043BC8
:102F900008BF7047D20728BF31F8023B48BF11F87D
:102FA000012B28BF20F8023B48BF00F8012B7047D7
:102FB0004FF0000200B5134694469646203922BFD2
:102FC000A0E80C50A0E80C50B1F12001BFF4F7AF1D
:102FD000090728BFA0E80C5048BF0CC05DF804EBFF
:102FE000890028BF40F8042B08BF704748BF20F86D
:102FF000022B11F0804F18BF00F8012B7047000022
:10300000004870474801002010B500F005F8001D89
:1030100010BD00BF050C000000487047680100208B
:1030200030B5B0F10A024FEA900E71F100034EEA9A
:10303000817EB0EB0E0061EB91014FEA101E4EEA6B
:10304000017E10EB0E0041EB11114FEA102E4EEAFB
:10305000016E10EB0E0041EB11214FEA104E4EEACB
:10306000014E10EB0E0041EB1141401841F10001FF
:103070004FEAD00040EA41704FEAD10110EB8005E1
:103080004FEA810444EA907444EB01046D1944EB67
:103090000404521BA3414FF0000348BF0A3200D57D
:1030A00030BD401C41F1000130BD000001694A1CE7
:1030B00002610878704700B58FB0CDE90131002179
:1030C000059105497944CDE9031011466846FFF79B
:1030D0004BFB0FB000BD0000E5FFFFFF2DE9F04105
:1030E0001F46044603260168072A01F4006004DB3A
:1030F00008B116A505E016A503E008B115A500E086
:1031000015A521F010002060A069C01EA0610FB1BC
:10311000401EA0612046AFF300804FB1D4E90121E9
:1031200038469047206A401C2062C01C206206E09E
:10313000206AFAE7D4E9012115F8010B9047761EC1
:10314000F8D22046AFF30080BDE8F0814E414E003A
:103150006E616E00494E4600696E66002DE9F05FB3
:10316000824615468B4600270AF10104B9460078CD
:10317000302801D09DB113E014F8010B0127782805
:1031800003D0582801D045B10AE00DB1102D07D168
:10319000002714F8010B102502E0082500E00A259D
:1031A0000026B0460EE005FB080005FB06F10127EE
:1031B0001FFA80F801EB1046B6F5803F00D3B94600
:1031C00014F8010B294600F0D2F80028EBDABBF125
:1031D000000F05D00FB1641E00E05446CBF800404C
:1031E000B9F1000F06D0FFF7D9FB02210160C81E1C
:1031F000BDE8F09F48EA0640FAE700002DE9F047F5
:10320000814616468AB0354878440DC88DE80D00D1
:1032100032487844801C03AC0DC884E80D0041F6A8
:103220009B300844372190FBF1F290FBF1F5A5F1BA
:10323000800501FB12041B3C02D56442012000E022
:103240000020DFF898A080460027FA44AAF1BE0AC1
:103250000EE0E0070AD03246684607EB470101233B
:103260000AEB810100F06BFB8DE8070064107F1C06
:10327000002CEED1194F7F44AE3F19E0E80715D07E
:1032800007EB04100DF1180A90E80E008AE80E0012
:10329000C068F04201D1981908903246012306A96E
:1032A00003A800F04CFB03AB83E807006D10641C1F
:1032B000002DE3D14FF0010332466946B8F1000F0B
:1032C00003A802D000F026FB01E000F038FBC9E9BA
:1032D0000001C9F808200AB0BDE8F087B00B000073
:1032E000007B00F08000704730B503461D781DB1AB
:1032F0000A4603E0AC4201D1181A30BD12F8014B66
:10330000002CF7D15B1CF1E730B503461D783DB1C9
:103310000A4612F8014B1CB1AC42FAD15B1CF5E72E
:10332000181A30BD7546FFF76BFEAE4605006946BC
:10333000534620F00700854618B020B5FDF754FC31
:10334000BDE820404FF000064FF000074FF00008A6
:103350004FF0000B21F00701AC46ACE8C009ACE827
:10336000C009ACE8C009ACE8C0098D4670473A28EE
:1033700000D2303820F02002412A01D3A2F13700D8
:10338000884201D34FF0FF30704710B50446AFF3C9
:1033900000802046BDE81040FCF755BF4FF0013CCF
:1033A00050F8042B51F8043B9A4221D1A2EB0C03B4
:1033B000934313EACC1317D150F8042B51F8043B74
:1033C0009A4215D1A2EB0C03934313EACC130BD111
:1033D00050F8042B51F8043B9A4209D1A2EB0C039C
:1033E000934313EACC13DBD04FF00000704700BFCB
:1033F000D01A01BAB1FA81F101F0180122FA01F0F4
:10340000CB40C1F12001DBB2C0B2C01A2CFA01F3EB
:10341000D11A914311EAC311E6D170475FEA400C1B
:1034200008BF91F0000F4FEA8C234FEAC12243EA14
:1034300051514FEA1C5018BF00F5F0404FEA3000E0
:1034400018BF41F000415FEA6C5C00F02980BCF1DC
:10345000FF3F08BF40F080407047130C06BF1204C6
:103460004FF0100C4FF0000C130E04BF12020CF1C1
:10347000080C130F04BF12010CF1040C930F04BFCE
:1034800092000CF1020CD30F04BF52000CF1010C9E
:1034900011464FF00002A0F11F00A0EB0C00704796
:1034A00011F0004F08BF704731F000413FF4D5AF35
:1034B0000B0C06BF09044FF0100C4FF0000C0B0E64
:1034C00004BF09020CF1080C0B0F04BF09010CF139
:1034D000040C8B0F04BF89000CF1020CCB0F04BF4E
:1034E00049000CF1010CCCF12003A0EB0C0022FAF6
:1034F00003F302FA0CF241EA030100F10100704704
:1035000020F07F4C80EA030023F07F47ACEB0703F9
:1035100003F57C5300F0004003F1FF032DE98049DF
:103520004FEA154B09B44FEA144325EA0B4E24EA3F
:1035300003480FF2042606EB132749083E785FEA9A
:10354000320203FB0667C7F5000707FB06F64FEAE2
:1035500054374FEAD64606F1020607FB066CCCF15B
:10356000005C4FEA1C472CEA074C07FB06F40CFBF7
:1035700006F504EB15464FEA961634BF00204FF0CF
:1035800000404FEAD13706FB07FC4FEA1C4C0CFB0E
:103590000BF7D21B03FB0CF761EB07010CFB0EF7DB
:1035A000B0EB074072EB17420CFB08F734BFA2EBFD
:1035B0000742B2EB074261EB17414FEA0C444FEA76
:1035C000910706FB07FC4FEA1C4C0CFB0BF7B0EB1A
:1035D000C74072EB573203FB0CF734BFA2EBC74274
:1035E000B2EBC74261EB57310CFB0EF7B0EBC700F3
:1035F00072EB57720CFB08F734BFA2EBC702B2EBB9
:10360000C70261EB5771039F4FEA816141EA921152
:1036100004EBCC044FEAD1374FEA826206FB07FC89
:1036200042EA90124FEA80604FEA1C4C0CFB0BF709
:10363000D21B03FB0CF761EB07010CFB0EF7B0EBA1
:10364000074072EB17420CFB08F734BFA2EB0742AE
:10365000B2EB074261EB17414FEA8C554FEA9107F5
:1036600004EB9C2406FB07FC4FEA1C4C0CFB0BF7FD
:10367000B0EBC74072EB573203FB0CF734BFA2EB41
:10368000C742B2EBC74261EB57310CFB0EF7B0EB10
:10369000C70072EB57720CFB08F734BFA2EBC702EE
:1036A000B2EBC70261EB577115EB4C254FEA816114
:1036B00041EA92114FEA82624FEAD13742EA901210
:1036C00006FB07FC44F100044FEA80604FEA1C4C03
:1036D0000CFB0BF7D21B03FB0CF761EB07010CFB98
:1036E0000EF7B0EB074072EB17420CFB08F734BF44
:1036F000A2EB0742B2EB074261EB174115EB1C1539
:103700004FEA813141EA92414FEA823242EA9042E5
:103710004FEA80304FEA0C7644F1000448EA034354
:103720004EEA0B484FF0000EB2EB080C71EB0307AA
:1037300024BF624639464EEB0E0E4FF0000B0018C8
:10374000524149414BEB0B0BB2EB080C71EB0307F9
:103750007BF1000B24BF624639464EEB0E0E4FF054
:10376000000B0018524149414BEB0B0BB2EB080C1C
:1037700071EB03077BF1000B24BF624639464EEB29
:103780000E0E51EA020718BF46F0010616EB0E7640
:1037900055F1000254F1000103D5BDE88901BDE8EF
:1037A0000088BDE88901BDE80048B619524141EBE7
:1037B0000101A3F10103704780807F7E7D7C7B7ACD
:1037C0007978777676757473727171706F6E6E6DCD
:1037D0006C6C6B6A6A696868676666656464636373
:1037E00062616160605F5F5E5E5D5D5C5C5B5B5AF9
:1037F0005A59595858575756565555555454535366
:1038000052525251515050504F4F4F4E4E4D4D4DC0
:103810004C4C4C4B4B4B4A4A4A494949484848470B
:103820004747474646464545454444444443434349
:103830004342424242414141002B9C4630D47700F2
:103840002BD01CB54FEA370703B44FF010004FF0F0
:103850001001BAF1000F06D0BCF1000FDCBF40F040
:10386000080040F008014FF000000FBCBDE8104018
:103870000BF1010BBBF1010F08BF5FEA170722BF75
:1038800012F1010211F101014FF0004143F1000377
:1038900000F0004043EA00007047F9D35708D0E732
:1038A00046EA064613F1400F4FEA16461FDD13F1B4
:1038B000200FDFBF16430A46002120335B42BED0F3
:1038C000C3F1200746EA064602FA07F74FEA164612
:1038D00046EA0706C3F1200722FA03F201FA07F7C6
:1038E00021FA03F14FF0000342EA0702A7E746EA94
:1038F000020646EA06464FEA164646EA0106BCBFFD
:1039000046EA0646360C4FF000034FF000024FF037
:10391000000194E72DE9804C9A46934670B491E8F3
:10392000380007C831EA400C48BF34EA430C03D5DD
:10393000FFF7E6FDFFF780FFF0BCBDE8008C2DE946
:10394000804C9A46934670B491E8380007C810F04E
:10395000804F08BF13F0804F03D100F005F8FFF748
:103960006BFFF0BCBDE8008C20F07F4780EA0300CD
:1039700023F07F4C07EB0C03A3F57C5300F00040D1
:10398000A3F1FE0392F0000F00F0B38095F0000F5A
:1039900000F077802DE901494FEA11404FEA1446C3
:1039A00021EA004800FB06FC24EA064708FB06F66D
:1039B00007FB08F800FB07F718EB06484CEB164C22
:1039C0004FEA124B18EB07484FEA15464CEB1740ED
:1039D00022EA0B4E0BFB06FC25EA06470EFB06F619
:1039E00007FB0EFE0BFB07F71EEB064E4CEB164CCF
:1039F0004FF000061EEB074E4CEB174B18EB0B0875
:103A000040F1000018EB0E0B58EB000840F10000ED
:103A10008F1A4FF000013CBFC943661B14BFB5EBC2
:103A2000040C00213CBFC943F61B4FEA17444EEA81
:103A30008E0E27EA04454FEA1C4704FB07622CEA76
:103A4000074C05FB07F70CFB05F604FB0CFC16EB1B
:103A5000074642EB174216EB0C4642EB1C421BEBAF
:103A6000060658EB0202414146EA9E0601D5BDE832
:103A70000189B619524141EB0101A3F10103BDE8EF
:103A800001894FEA14454FEA114724EA054621EA25
:103A9000074C05FB07F406FB07F70CFB06F105FBDB
:103AA0000CFC11EB074144EB17444FEA124711EBB2
:103AB0000C4144EB1C4422EA074C05FB07F206FBD1
:103AC00007F70CFB06F605FB0CFC16EB074642EB72
:103AD000174216EB0C4642EB1C456A1854F10001E4
:103AE00048BF7047B619524141EB0101A3F10103F0
:103AF000704795F0000F37D04FEA11424FEA144754
:103B000021EA024624EA074C02FB07F106FB07F70D
:103B10000CFB06F402FB0CFC14EB074441EB1741D1
:103B20004FEA154714EB0C4441EB1C4125EA074CC6
:103B300002FB07F506FB07F70CFB06F602FB0CFC85
:103B400016EB074645EB174516EB0C4645EB1C42BA
:103B5000121951F1000148BF7047B619524141EBAB
:103B60000101A3F1010370474FEA14454FEA1147E1
:103B700024EA054621EA074C05FB07F106FB07F797
:103B80000CFB06F24FF0000605FB0CFC12EB0742A3
:103B900041EB174112EB0C4251EB1C4148BF7047FF
:103BA000921841EB0101A3F10103704703B401989E
:103BB0004100009850EAC12018BF04204A0D18BFE8
:103BC00040F0010040F2FF72B2EB515F08BF40F0DD
:103BD0000200012808BF052002B0704730380A28CB
:103BE00001D20120704700207047000010B5002965
:103BF0000AD00878002807D005487844FFF7CEFBA4
:103C0000002801D0002010BD0248784410BD0000FB
:103C1000FA010000F201000010B500290AD008786E
:103C2000002807D005487844FFF7B8FB002801D0EA
:103C3000002010BD0248784410BD0000EA010000D9
:103C4000E20100000808A0F500114FEA31017047B9
:103C500043004FEAD30C4FEA3C0C43401FBF4007E0
:103C60000CF1605113F0FE4F70471CF0006F03D150
:103C700000200CF0004170470CF0004343EA507004
:103C800010B540EACC0000F00EF800BF0000009232
:103C90004FEA0001FFF7D6BF4FF000414FF00000A0
:103CA000A1F5002170470EF1020E2EF0030E5EF812
:103CB000044B244204D44FEA4102B2F17F4F11D8A1
:103CC0004FEA4003B3F17F4F0CD80ED14FEAD07CBE
:103CD000B2F17F4F0CEB4C0C0CF1020C08BF4CEB1B
:103CE000D17C04E04FF0080C01E04FEAD17C0CEBF2
:103CF0004C0324FA03F404F00704B4F1040C06D2D4
:103D00000EEB840CBDE810404CF0010C6047DFE87E
:103D10000CF0070802024FF00040A0F5800010BD33
:103D20000846420018BFD2F1807288BF00F0004000
:103D300010BD4FF04070E1EE100A7047FEF764BF0F
:103D400002400000000000A000000000054000004C
:103D5000000000C8000000000C4000000000409C73
:103D600000000000194000000020BCBE0000000060
:103D700034400000BFC91B8E00000004B5400000A5
:103D8000504BCFD06607E2CF010000006C4100002D
:103D90003E8251AADFEEA73401000000D9420000A4
:103DA000DCB5A0E23A301F97FFFFFFFFB4450000EB
:103DB000FD25A0C8E9A3C14FFFFFFFFFFF3F0000A3
:103DC0000000008000000000FF3F000000000080B5
:103DD00000000000203F00080000002088000000D4
:103DE000C4010008A83F0008880000202007000048
:103DF000E00100081C00000043000000F8FFFFFF86
:103E00000C0000000E0000000F0000002E0000005B
:103E10001001000043000000F8FFFFFF0040404099
:103E2000404040404040414141414140404040408D
:103E30004040404040404040404040404005020239
:103E400002020202020202020202020202202020F8
:103E50002020202020202002020202020202909054
:103E60009090909010101010101010101010101052
:103E700010101010101010100202020202028888A6
:103E800088888888080808080808080808080808B2
:103E9000080808080808080802020202400000009A
:103EA0000000000000000000000000000000000012
:103EB0000000000000000000000000000000000002
:103EC00000000000000000000000000000000000F2
:103ED00000000000000000000000000000000000E2
:103EE00000000000000000000000000000000000D2
:103EF00000000000000000000000000000000000C2
:103F000000000000000000000000000000000000B1
:103F100000000000000000000000000000000000A1
:103F2000007A030A00000000000000000102030400
:103F30000607080900000000000000000000000063
:103F400000000000000000003200000068656C6C9A
:103F50006F000000000000000000000000000000F2
:103F6000000000000000000000000000E10900085F
:103F700070776D00000000000000000000000000ED
:103F80000000000000000000000000000000000031
:103F9000EF0900080000000001020304010203040D
:083FA0000607080900000000FB
:040000050800018965
:00000001FF
